:020000040800F2
:10000000A8060020890100089D0B0008F1080008DF
:10001000450A0008A9030008691400080000000050
:10002000000000000000000000000000750F000844
:100030007905000800000000310F0008E1100008F9
:10004000A3010008A3010008A3010008A301000800
:10005000A3010008A3010008A3010008A3010008F0
:10006000A3010008A3010008A3010008A3010008E0
:10007000A3010008A3010008A3010008A3010008D0
:10008000A3010008A3010008A3010008A3010008C0
:10009000A3010008A3010008A3010008A3010008B0
:1000A000A3010008A3010008A3010008A3010008A0
:1000B000A301000845110008A3010008A3010008DE
:1000C000A3010008A3010008A3010008A301000880
:1000D000A3010008A3010008A3010008A301000870
:1000E000A3010008A3010008A301000800F002F822
:1000F00000F03AF80AA090E8000C82448344AAF188
:100100000107DA4501D100F02FF8AFF2090EBAE885
:100110000F0013F0010F18BFFB1A43F0010318473B
:100120004038000060380000103A24BF78C878C119
:10013000FAD8520724BF30C830C144BF04680C60ED
:10014000704700000023002400250026103A28BF35
:1001500078C1FBD8520728BF30C148BF0B60704739
:100160001FB51FBD10B510BD00F044F81146FFF7D4
:10017000F7FF01F00DFE00F062F803B4FFF7F2FFA5
:1001800003BC00F065F800000948804709480047B3
:10019000FEE7FEE7FEE7FEE7FEE7FEE7FEE7FEE737
:1001A000FEE7FEE704480549054A064B7047000094
:1001B000E5100008ED000008A8000020A8060020B7
:1001C000A8020020A802002070477047704710B5B1
:1001D00000F008F8006810BD10B5044600F002F801
:1001E000046010BD00487047480000200048704778
:1001F000480000207546FFF7F9FFAE460500694646
:10020000534620F00700854618B020B5FFF7CAFF17
:10021000BDE820404FF000064FF000074FF0000807
:100220004FF0000B21F00701AC46ACE8C009ACE888
:10023000C009ACE8C009ACE8C0098D46704710B5EC
:100240000446AFF300802046BDE81040FFF795BF9D
:1002500001491820ABBEFEE72600020070470000EF
:100260002DE9F04790B0804689469246B9F90000E2
:1002700002F015F90022464BCDE9080101F088FF94
:100280000022444BCDE90A0102F070F9424A434B87
:10029000CDE90C0102F06AF904460D46B8F90000F8
:1002A00002F0FDF800223A4BCDE9080101F070FFA1
:1002B0000022384BCDE90A0102F058F9364A374B93
:1002C000CDE90C0102F052F9CDE90E01BAF90000B6
:1002D00002F0E5F800222E4BCDE9080101F058FFAD
:1002E00000222C4BCDE90A0102F040F92A4A2B4B9F
:1002F000CDE90C0102F03AF906460F4632463B467C
:100300002046294601F044FFCDE90A0101F0E2FB55
:100310004FF08042224BCDE90C0101F039FF214A18
:1003200003C232463B463046394602F01FF92246A8
:100330002B46CDE902012046294602F017F9CDE906
:100340000001DDE9022301F067FECDE9040101F0BF
:100350001DFE02460B46CDE90601DDE90E0101F066
:1003600017FFCDE9080101F0B5FB00221346CDE9E6
:100370000A0102F02FFA4FF08042094BCDE90C013F
:1003800001F006FF074AC2E9020110B0BDE8F0879C
:1003900080E9DF40000030409A999999999923406B
:1003A0004ED1913F3000002000BFFEE72DE9FF5FF6
:1003B00083469A465846DDE90112FFF751FF504641
:1003C000DDE90E1200F098F91848D0E900611848EC
:1003D0000CC8304602F0F0FA8046164A164B02F07E
:1003E000C5F8044612480CC8204601F015FE104A14
:1003F00003C20E48D0E9026110480CC8304602F032
:10040000DBFA04460B4A0C4B02F0B0F880460B486E
:100410000CC8404601F000FE084A03C20848D0E973
:100420000010074AC2E90010BDE8FF9F300000201D
:10043000180000209A9999999999D93F2000002095
:10044000280000202DE9F04F97B08046894692465B
:100450009B464FF08042474B4046494602F086F8A3
:1004600004460D464FF08042424B5046594602F03A
:100470007DF806460F462046294601F03BFCCDE9B3
:1004800008013046394601F035FCCDE90601DDE9C9
:10049000082302F06BF8CDE90C012046294601F053
:1004A00025FDCDE902012046294601F01FFDCDE9D9
:1004B0000001DDE9022302F059F8CDE906013046DA
:1004C000394601F013FDCDE902013046394601F00D
:1004D0000DFDCDE90001DDE9022302F047F8CDE989
:1004E0000401DDE9062301F097FDCDE9080101F0E3
:1004F0004DFDCDE90A01DDE90C2301F049FECDE90E
:100500000E0101F0E7FA4FF080421A4BCDE91001DD
:1005100001F03EFECDE914012046294601F0E6FC3B
:10052000CDE90C013046394601F0E0FCCDE90A0185
:10053000DDE90C2301F02CFECDE90E0101F0CAFA31
:1005400081F000414FF080420A4BCDE9100101F0EB
:100550001FFECDE91201DDE9140101F071FF2099C0
:100560000860DDE9120101F06BFF2199086017B006
:10057000BDE8F08F4ED1913F704700B5034603E0D0
:100580004FF47A7000F005F8181EA3F10103F7D1BB
:1005900000BD04214FF0E022116100EBC001C90051
:1005A0005161002191610521116100BF4FF0E021EF
:1005B000096901F480310029F8D070472DE9F04134
:1005C000024600250026002000230024002791F881
:1005D00003C00CF00F0591F803C00CF0100CBCF137
:1005E000000F03D091F802C04CEA050591F800C055
:1005F000BCF1000F31D0146800202BE04FF0010C4B
:100600000CFA00F3B1F800C00CEA03069E4220D1B8
:1006100083004FF00F0C0CFA03F7BC4305FA03FC00
:100620004CEA040491F803C0BCF1280F06D14FF046
:10063000010C0CFA00FCC2F814C00AE091F803C0E7
:10064000BCF1480F05D14FF0010C0CFA00FCC2F8C8
:1006500010C0401C0828D1D31460B1F800C0BCF110
:10066000FF0F34DD546800202EE000F1080C4FF03D
:10067000010808FA0CF3B1F800C00CEA03069E4228
:1006800021D183004FF00F0C0CFA03F7BC4305FA9D
:1006900003FC4CEA040491F803C0BCF1280F05D117
:1006A00000F1080C08FA0CF8C2F8148091F803C0A5
:1006B000BCF1480F07D100F1080C4FF0010808FA0F
:1006C0000CF8C2F81080401C0828CED35460BDE856
:1006D000F0810246002093680B400BB1012000E03E
:1006E0000020704741617047016170470AB10161A4
:1006F00000E04161704700002DE9F04796B00646E2
:1007000089469246B6F9000001F0C9FE00226F4BFF
:10071000CDE9100101F03CFD00226D4BCDE9120145
:1007200001F024FFCDE91401B9F9000001F0B7FE92
:100730000022664BCDE9100101F02AFD0022644B36
:10074000CDE9120101F012FF07468846BAF9000010
:1007500001F0A5FE00225D4BCDE9100101F018FD6E
:1007600000225B4BCDE9120101F000FF04460D466B
:10077000584903C901F0BEFACDE90A01564903C937
:1007800001F0B8FACDE90601524903C901F0AEFB08
:1007900022462B46CDE9020101F0E8FECDE9040135
:1007A000DDE9062301F0E2FECDE90801DDE90A23D7
:1007B00001F0EEFCCDE90E01464903C901F09AFAB9
:1007C000CDE90801444903C901F090FBCDE90401DA
:1007D000404903C901F08AFB3A464346CDE900018E
:1007E00001F0C4FECDE90201DDE9042301F0BEFE03
:1007F000CDE90601DDE9082301F0CAFCCDE90A01D3
:10080000DDE9142301F008FCCDE90C01DDE90E233C
:1008100001F002FC314A324BCDE9100101F0A6FE95
:10082000CDE912012C480CC8129801F0F5FB2A4AB8
:1008300003C2294903C901F059FB22462B46CDE9E1
:100840000A0101F093FECDE90E01234903C901F02D
:1008500051FA3A464346CDE90A0101F087FECDE957
:100860000C01DDE90E2302F0A7F81C4A1C4BCDE970
:10087000100101F07BFECDE9120116480CC8129858
:1008800001F0CAFB134A03C2144A154B20462946FD
:1008900001F06CFE04460D460022124B204629460C
:1008A00001F062FF06D300220F4B2046294601F0DB
:1008B00021FE07D222462B460C4903C901F0ACFBAE
:1008C0000A4A03C216B0BDE8F08700000000E0400D
:1008D00000409F4020000020180000209A9999991C
:1008E0009999B93F0000F03F0000F0BF28000020B8
:1008F00000BFFEE72DE9F05F06460F469046994699
:10090000DDE90AAB3B2000F067F804463C2000F02C
:1009100063F8054645EA042000B230803D2000F02F
:100920005BF804463E2000F057F8054645EA0420EF
:1009300000B238803F2000F04FF80446402000F01D
:100940004BF8054645EA042000B2A8F80000432011
:1009500000F042F80446442000F03EF8054645EA1F
:10096000042000B2A9F80000452000F035F8044644
:10097000462000F031F8054645EA042000B2AAF806
:100980000000472000F028F80446482000F024F832
:10099000054645EA042000B2ABF80000BDE8F09F30
:1009A00010B500F051F801216B2000F034F800215F
:1009B0006C2000F030F80921192000F02CF80621F5
:1009C0001A2000F028F818211B2000F024F8182124
:1009D0001C2000F020F810BD70B5044600F0A8F807
:1009E000D02000F090F800F059F8204600F08BF885
:1009F00000F054F800F09CF8D12000F084F800F0EA
:100A00004DF800F05AF80546012000F070F800F0AB
:100A10009DF8284670BD70B505460C4600F088F874
:100A2000D02000F070F800F039F8284600F06BF89C
:100A300000F034F8204600F066F800F02FF800F0DF
:100A400085F870BD00BFFEE708B50121082000F061
:100A500081FA14208DF803004FF44060ADF80000D7
:100A600003208DF8020069460448FFF7A7FD4FF404
:100A700040610248FFF738FE08BD0000000C01404D
:100A800010B54FF400610448FFF723FE04460A2026
:100A9000FFF77FFD204610BD000C014010B501207E
:100AA00000F06EF8012000F05DF8FFF7E9FF044662
:100AB000002000F057F8204610BD70B50025012039
:100AC00000F05EF800240EE0012000F04BF8FFF784
:100AD000D7FF012802D1802020410543002000F0EB
:100AE00041F8601CC4B2082CEEDB284670BD10B57E
:100AF0000446204600F044F8012000F033F80020BE
:100B000000F030F810BD70B5054600240DE08021DE
:100B1000214101EA050000F033F8012000F022F83D
:100B2000002000F01FF8601CC4B2082CEFDB70BD81
:100B300010B5012000F024F8012000F013F8002087
:100B400000F01EF8002000F00DF810BD10B50020D8
:100B500000F016F8012000F005F8012000F010F870
:100B600010BD000010B5044622464FF480610348D2
:100B7000FFF7BCFD0A20FFF70CFD10BD000C014083
:100B800010B5044622464FF400610348FFF7AEFD5E
:100B90000A20FFF7FEFC10BD000C0140704770B545
:100BA00000240EE00021204600F0EFF8002504E0CC
:100BB000002000F078F9681CC5B2802DF8DB601CBD
:100BC000C4B2082CEEDB70BD08B50121042000F092
:100BD000C1F914208DF8030003208DF802004FF4B2
:100BE0008070ADF8000069460A48FFF7E7FC4FF453
:100BF0000070ADF8000069460648FFF7DFFC0122EF
:100C000011020448FFF772FD012251020148FFF76B
:100C10006DFD08BD0008014070B50546002415E0D3
:100C20008020204100EA05024FF400710E48FFF7D2
:100C30005DFD012211020C48FFF758FD00224FF420
:100C400080710948FFF752FD601CC4B2082CE7DB35
:100C5000012211020448FFF749FD00224FF4807180
:100C60000148FFF743FD70BD0008014010B50122A7
:100C700051020A48FFF73AFD012211020748FFF727
:100C800035FD00224FF400710448FFF72FFD0022CC
:100C90004FF480710148FFF729FD10BD00080140A5
:100CA00010B500224FF400710648FFF71FFD012226
:100CB00011020448FFF71AFD012251020148FFF713
:100CC00015FD10BD0008014070B5002406E00025A8
:100CD00000E06D1CB5F57A7FFBD3641CB4F57A7F18
:100CE000F5D3FFF771FFAE2000F0CDF8D52000F06E
:100CF000CAF8802000F0C7F8A82000F0C4F83F2010
:100D000000F0C1F8D32000F0BEF8002000F0BBF8DE
:100D1000402000F0B8F8A12000F0B5F8C82000F09D
:100D2000B2F8DA2000F0AFF8122000F0ACF8812021
:100D300000F0A9F8CF2000F0A6F8D92000F0A3F821
:100D4000F12000F0A0F8DB2000F09DF8302000F04A
:100D50009AF8A42000F097F8A62000F094F88D20CF
:100D600000F091F8142000F08EF8AF2000F08BF81E
:100D7000FFF715FF70BD10B50246012000E050439B
:100D80000B1EA1F10101FAD110BD70B505460C464C
:100D900045F0B00000F077F8102141EA141000F09F
:100DA00072F804F00F0000F06EF870BD2DE9F0410C
:100DB00005460E461746721ED206110E6A1E5206D0
:100DC000100EFFF7E2FF002409E0A7F12001134A0B
:100DD00002EB0111085D00F066F8601CC4B2082C3B
:100DE000F3DB721ED206110E6A1E012303EB4202D0
:100DF000D0B2FFF7CAFF00240BE0A7F12001074A99
:100E000002EB011204F10801505C00F04CF8601C88
:100E1000C4B2082CF1DBBDE8F0810000B631000857
:100E20002DE9F0478146884615461E46002D06DB13
:100E30002B2241464846FFF7B9FF2F4605E02D22F9
:100E400041464846FFF7B2FF6F42002417E0301BCF
:100E5000411E0A20FFF78FFFB7FBF0F00A21B0FB1D
:100E6000F1F201FB120000F1300A08EB0400401C13
:100E7000C1B252464846FFF799FF601CC4B2B44263
:100E8000E5DBBDE8F08710B50446FFF7EFFE7820FC
:100E9000FFF7C2FE0020FFF7BFFE2046FFF7BCFEB3
:100EA000FFF7FEFE10BD10B50446FFF7DFFE782009
:100EB000FFF7B2FE4020FFF7AFFE2046FFF7ACFE83
:100EC000FFF7EEFE10BD000008B50121084600F056
:100ED00031F80121042000F03DF818208DF80300BE
:100EE0000320ADF800008DF8020069460748FFF7BF
:100EF00065FB4FF0804000F0B3F900F085F900F099
:100F000057F90121880700F036F908BD00080140B3
:100F100010B5044621464FF0804000F04FFA10BD56
:100F200010B5044621464FF0804000F049FA10BD4C
:100F30007047000029B1064AD2690243044BDA61C6
:100F400004E0034AD2698243014BDA617047000032
:100F50000010024029B1064A92690243044B9A618B
:100F600004E0034A92698243014B9A617047000092
:100F700000100240704710B5FFF7A6FF10BD00003B
:100F80002DE9F04104460A49204601F061FE804601
:100F9000084901F057FF0746074901F0F7FD0646EB
:100FA00001F018FF85B22846FFF7B2FFBDE8F081D7
:100FB000000034430000FA440000FA432DE9F041F8
:100FC00004460A49204601F043FE8046084901F0E4
:100FD00039FF0746074901F0D9FD064601F0FAFE40
:100FE00085B22846FFF79CFFBDE8F081000034433E
:100FF0000000FA440000FA4310B500F001F810BDFB
:101000000CB50020019000903348006840F4803017
:101010003149086000BF3048006800F4003000909B
:101020000198401C0190009818B90198B0F5A06F84
:10103000F1D12948006800F4003010B1012000907F
:1010400001E0002000900098012843D12348006867
:1010500040F01000214908600846006820F00300B5
:1010600008600846006840F0020008601A484068BE
:10107000194948600846406848600846406840F49E
:10108000806048600846406820F47C10486008464C
:10109000406840F4E81048600846006840F08070FE
:1010A000086000BF0C48006800F000700028F9D00C
:1010B0000948406820F00300074948600846406836
:1010C00040F00200486000BF0348406800F00C0098
:1010D0000828F9D10CBD0000001002400020024099
:1010E0007047000010B51348006840F00100114936
:1010F000086008464068104908400E4948600846A4
:1011000000680E4908400B4908600846006820F452
:10111000802008600846406820F4FE0048604FF4D4
:101120001F008860FFF768FF4FF000600449086007
:1011300010BD0000001002400000FFF8FFFFF6FEA7
:1011400008ED00E010B50121074800F020F8012863
:1011500008D106480068401C044908600121024883
:1011600000F006F810BD000000040040140000204C
:10117000CA430282704721B1028842F00102028014
:1011800004E002884FF6FE731A400280704730B5C3
:101190000246002000230024158A05EA01039589F0
:1011A00005EA010413B10CB1012000E0002030BDBC
:1011B00000B587B00020ADF81600ADF8120044F677
:1011C0001F60ADF814004720ADF8100000208DF826
:1011D000180004A94FF0804000F0F4F8684600F0D1
:1011E000E3F86020ADF800000020ADF80800012011
:1011F000ADF802000020ADF8060069464FF08040CF
:1012000000F034F807B000BD00B587B00020ADF89D
:101210001600ADF8120044F61F60ADF81400472028
:10122000ADF8100000208DF8180004A94FF08040A0
:1012300000F0C8F8684600F0B7F86020ADF800008C
:101240000020ADF808000120ADF802000020ADF844
:10125000060069464FF0804000F054F807B000BD2A
:1012600001894FF6F87211400181704770B5002472
:1012700000220023058C4FF6FE7635400584028C53
:101280008388048B4FF68F752C40B51E2C400D883B
:101290002C43751E2A400D892A434D882A43144D3C
:1012A000A8420BD0134DA84208D0134DA84205D038
:1012B000124DA84202D0124DA84213D14FF6F77535
:1012C0002A404D892A434FF6FB752A408D882A43D0
:1012D0004FF6FF652B404FF6FF552B408D892B4372
:1012E000CD892B4383800483CD888586028470BD9D
:1012F000002C014000340140004001400044014006
:101300000048014070B5002400220023058C4FF6F0
:10131000EF7635400584028C8388048B48F6FF7590
:101320002C404FF6FF452C400D884FF6FF7606EA1D
:1013300005252C434FF6DF752A400D8906EA051571
:101340002A434D8806EA05152A43154DA84202D0C6
:10135000144DA8421DD14FF67F752A404D894FF696
:10136000FF7606EA05152A434FF6BF752A408D8899
:1013700006EA05152A434FF6FF352B404FF2FF755D
:101380002B408D8906EA85052B43CD8906EA850524
:101390002B4383800483CD880587028470BD0000C1
:1013A000002C0140003401400021018041808180F7
:1013B000C180018141818181C181704781867047EF
:1013C00001877047002202881D4B98420ED01D4BAA
:1013D00098420BD0B0F1804F08D01B4B984205D0FB
:1013E0001A4B984202D01A4B984204D14FF68F7391
:1013F0001A404B881A43174B984207D0164B984215
:1014000004D04FF6FF431A40CB881A4302808B88E2
:1014100083850B8803850A4B98420BD0094B984271
:1014200008D00E4B984205D00D4B984202D00D4B80
:10143000984201D10B7A0386012383827047000012
:10144000002C01400034014000040040000800402E
:10145000000C00400010004000140040004001401B
:10146000004401400048014000BFFEE7490050EA47
:10147000C12018BF04204A0D18BF40F0010040F2FF
:10148000FF72B2EB515F08BF40F00200012808BFB5
:10149000052070472DE9F74F144694B00021C4E9A8
:1014A00002111599079121F00045C9498D4206DCCA
:1014B0001599C4E9000117B00020BDE8F08FC549B7
:1014C000DFF814A3A9423CDD0799C44E0029C44F9C
:1014D000C44A1599534619DD01F06EFA554506D0F8
:1014E000C14AC24B01F068FAC4E900010AE04FF0BA
:1014F000D352BE4B01F060FA32463B4601F05CFA33
:10150000C4E9000117B00120BDE8F08F00F084FDB0
:10151000554506D0B44AB54B00F07EFDC4E9000144
:101520000AE04FF0D352B14B00F076FD32463B4615
:1015300000F072FDC4E9000117B04FF0FF30BDE8C4
:10154000F08FAB49A942159978DB21F00041834621
:101550008846A84AA84B01F009F80022A74B00F0E2
:101560005BFD00F06DFF099000F099FF06460F4605
:101570009C4A534600F0FAFF43465A4601F02AF9C6
:1015800080468A46984A994B3046394600F0EEFF2D
:101590002A0D01250B924246534601F01BF9032DFB
:1015A000C4E9000139D00B98C1F30A51401A05EB88
:1015B00045111139814230DA9148C346784400EB35
:1015C0000510CDF80CA00C90D0E900233046394628
:1015D00000F0CCFF02460B46049106905846039952
:1015E00001F0EAF980468A4602460B4658460399BE
:1015F00001F0E2F9049B069A01F0DEF983460C98AB
:1016000003913946D0E90223304600F0AFFF5A4635
:10161000039B01F0D1F96D1CBDE707980028A2BF1C
:10162000099817B0BDE8F08F616881F000416160F2
:10163000099817B04042BDE8F08FFFE7844615983F
:10164000C1F31301C0F30A50A0F2F5304FEA60185D
:1016500000F01F06C6F120001390002006900790AE
:1016600041F4801E05206D4676B1664A08EB000104
:101670007A4452F8213002EB8101B3404A68139951
:1016800022FA01F1194305E05F4908EB00027944B1
:1016900051F82210A1FB0E27A1FB0C131A449A4209
:1016A00034BF0123002303EB070A05EB8003D3E9D2
:1016B00001B70F448F4234BF0121002193448B4472
:1016C00011B1934502D903E0934501D2012100E015
:1016D0000021C3E901B7514445F82010011EA0F1D3
:1016E0000100C1DC0298059F00F10050800F1290AC
:1016F0000298DDE90356800000F0D1FE83462846BB
:101700000D9100F0E3FE6FF01D0201F00EFDCDE93A
:101710000E01304600F0DAFE6FF03D0201F005FDEB
:1017200080468A46384600F0D1FE6FF05D0201F037
:10173000FCFC074642465346119100F06DFCDDE982
:101740000E2300F069FC5A460D9B00F065FC002555
:101750000E465A4628460D9B01F02EF9DDE90E2370
:1017600001F02AF94246534601F026F93A46119B08
:1017700001F030F8DFF898A0244A534600F0F6FE56
:1017800007468846234A244B3146284600F0EEFEA1
:101790003A46434600F040FC074688464FF0A842D0
:1017A00053463146284600F0E1FE3A46434600F0F3
:1017B00033FC159A12F0004F04D0129A81F00041C8
:1017C00052421292C4E90001129817B0BDE8F08F9E
:1017D000FB21E93F7CD90240FB21F93F7370032EC6
:1017E0008A19A33B000040543163621A61B4D03DB2
:1017F000FB21394183C8C96D305FE43F0000E03F01
:10180000B02200002C2200000E220000182D4454AB
:10181000FB21F93D3326A611460B113C2DE9FF4D66
:1018200021F0004807460C46B8F1795F08DA00F06D
:1018300007FE002801BF0020324904B0BDE8F08D4A
:101840003A4623461046194600F090FE05460246E9
:101850002D480E460B460621784400F05DF82A46D6
:10186000334600F083FEDDE9022382468B4638468C
:10187000214600F07BFE04460F4652465B46284652
:10188000314600F073FE22463B4601F095F80746CC
:101890008A464FF0FF322846314601F046FC1B4A8B
:1018A00090450ADA3A46534601F086F804B0002221
:1018B000BDE8F04D134B00F08DBF154A4245A8BF5F
:1018C000A8F500154FF00004B8BF124D22462B4674
:1018D00001F072F80646884622462B460020094948
:1018E00001F06AF804460D463A46534630464146F2
:1018F00001F062F804B022462B46BDE8F04D00F03E
:1019000069BF00000000F03FE41F00003333D33F05
:101910000000E93F0000D23F2DE9F0414F1E00EBEF
:10192000C7010446D1E9000115461E4637F00602FC
:101930000DD02A46334600F019FE7F1E04EBC70384
:10194000D3E9002300F068FB37F00602F1D1022F43
:1019500025D0042F13D0062F18BFBDE8F0812A46EA
:10196000334600F003FED4E90A2300F055FB2A4673
:10197000334600F0FBFDD4E9082300F04DFB2A4676
:10198000334600F0F3FDD4E9062300F045FB2A4678
:10199000334600F0EBFDD4E9042300F03DFB2A467A
:1019A000334600F0E3FDD4E9022300F035FB2A467C
:1019B000334600F0DBFDD4E90023BDE8F04100F040
:1019C0002BBB00002DE9FF4D054621F0004084B0FF
:1019D0000C46B0F1795F0BDA2846FFF747FD042883
:1019E00008BF00F06FF8284608B02146BDE8F08D2A
:1019F0002A460B46104600F0B9FD06460F462A4619
:101A0000234600F0B3FD804626488A4632463B46D0
:101A100005217844FFF780FF83461098029160B358
:101A2000214A224B4046514600F0A0FDCDE900017D
:101A30005A4640465146029B00F098FD8246884631
:101A4000DDE906014FF0FF3201F06FFB52464346DD
:101A500000F0B2FF32463B4600F088FDDDE9062388
:101A600000F0AAFFDDE9002300F0A6FF08B02A4637
:101A70002346BDE8F04D00F0ADBE0B465A46304659
:101A8000394600F073FD084A084B00F0C5FA42469B
:101A9000534600F06BFD08B02A462346BDE8F04DE2
:101AA00000F0BABA221F0000495555555555C5BF1B
:101AB000012201F03ABB002213461046114600F005
:101AC00067BB0000024A0020110701F02EBB000096
:101AD00001FDFFFF2DE9F84F04460D4621F00040BF
:101AE00000917349814211DC7249884201DC06D1C0
:101AF0002CB120462946BDE8F84FFFF7D9BF6E4804
:101B0000002DCCBF6D496E49BDE8F88F6D4981420B
:101B100011DD6D498142D8BF4FF0FF366DDD2046A3
:101B20002946FFF7A3FC042808BFFFF7CBFF204698
:101B30002946BDE8F88F6549654F25F0004581428B
:101B400033DD6449814219DD002632464FF080437F
:101B50002046294600F060FA80468A460122204647
:101B6000294601F0E2FA00223B4600F025FF4246FA
:101B7000534600F00DFB04460D463EE001260022D0
:101B8000BA463B462046294600F046FA80460F46B4
:101B9000002253462046294600F00EFF42463B46AF
:101BA00000F0F6FA04460D4627E04B4981421BDD62
:101BB000DFF828A10226002253462046294600F0DD
:101BC000D5FC00223B4600F027FA80460F46002253
:101BD00053462046294600F0EFFE42463B4600F0C1
:101BE000D7FA04460D4608E0032622462B4600207D
:101BF0003B4900F0CDFA04460D4622462B461046DE
:101C0000194600F0B3FC8B46824602460B4600F0B4
:101C1000ADFC07460246334888460B460621784409
:101C2000FFF77AFE52465B4600F0A0FC82462E4843
:101C30008B463A46434605217844FFF76DFE3A4607
:101C4000434600F093FC02460B46002E5046594690
:101C50000CDA00F0E1F922462B4600F087FC01B0D7
:101C600022462B46BDE8F04F00F0B4BD00F0D4F999
:101C700022462B4600F07AFC1C4A7A4402EBC6034B
:101C8000D3E9002300F098FE22462B4600F094FE94
:101C9000174A7A4402EBC603D3E9002300F09AFD09
:101CA000009A002AB8BF81F00041BDE8F88F00001B
:101CB000000010440000F07F182D4454FB21F93F30
:101CC000FB21F9BF0000DC3F0000203E0000F33F95
:101CD0000000F03F0000E63F008003400000F83FB6
:101CE0000000F0BFEE1B0000AC1B00004A1B000010
:101CF000121B000000B5244B21F0004287B09A422D
:101D0000DCBF0022134629DD204B9A4208D140B99E
:101D10004FF00100FEF760FAFFF7CDFE07B000BDFF
:101D200003DBFFF7C5FE07B000BD02AAFFF7B2FB59
:101D300010F0030104BF0DF1080C9CE80F000DD05A
:101D4000012001290ED0022914D00DF1080C0090B9
:101D50009CE80F00FFF736FE07B000BDFFF75EFD01
:101D600007B000BD0DF1080C00909CE80F00FFF7D4
:101D700029FE05E00DF1080C9CE80F00FFF74EFD71
:101D800007B081F0004100BDFB21E93F0000F07F7A
:101D90001FB500F021F900F08FF8FEF795FFFFF76F
:101DA000EAF8FEF7FDFD3A4903C900F049FB03904C
:101DB00000BF384903C900F043FB0290039C029D19
:101DC0000020FFF7FBF83448FFF7DAF84FF47A7099
:101DD000FEF7D3FB5BE031483149324B324ACDE963
:101DE000001032493248FEF785FD2C482C492D4B16
:101DF0002D4ACDE900102D492D48FEF7D7FA02A84B
:101E000003A9CDE900102B4821490CC803C9FEF7EE
:101E100019FB0398001B032804DC0398001B10F136
:101E2000030F12DA039800280FDB0398B4280CDCA8
:101E3000039800F0EFFF0646FFF7C0F8039C03236A
:101E400001210846039AFEF7EBFF0298401B032886
:101E500004DC0298401B10F1030F15DA029810F110
:101E60005A0F11DB02985A280EDC0299C1F15A0070
:101E700000F0D0FF0646FFF783F8029D03230121FF
:101E80000220029AFEF7CCFF6420FEF776FBA2E761
:101E900018000020280000200000B442100000209C
:101EA0000E0000200C0000200A0000200800002086
:101EB000060000202000002008B501211020FFF7B7
:101EC00049F810208DF803004002ADF8000003200F
:101ED0008DF8020069460448FEF770FB4FF400518C
:101EE0000148FEF7FFFB08BD0010014000B5254B7F
:101EF00021F0004287B09A4203DC00221346009290
:101F00002BE0214B9A4208D140B94FF00100FEF777
:101F100063F9FFF7D0FD07B000BD03DBFFF7C8FD95
:101F200007B000BD02AAFFF7B5FA10F003014FF0A9
:101F300001000DD0012914D002291AD00DF1080C8E
:101F40009CE80F00FFF76AFC07B081F0004100BD7C
:101F50000DF1080C00909CE80F00FFF733FD07B06F
:101F600000BD0DF1080C9CE80F00FFF757FC07B00F
:101F700000BD0DF1080C00909CE80F00FFF722FD5A
:101F8000E2E70000FB21E93F0000F07F2DE9F0418E
:101F900006460F4600F02AFC041E0D4618BF01201D
:101FA000284320F00040C0F17F6000F1E040C00F06
:101FB0000ED0301C18BF0120384320F00040C0F183
:101FC0007F6000F1E040C00F04BF0120FEF704F97C
:101FD00020462946BDE8F08108B501210820FEF71A
:101FE000B9FF10208DF803004FF44040ADF8000019
:101FF00003208DF8020069460648FEF7DFFA4FF429
:1020000080410448FEF76EFB4FF400410148FEF7A3
:102010006BFB08BD000C014010B591EA030F48BFEF
:1020200083F0004300F1D084841A71EB030C05D2D5
:10203000121943EB0C03001B61EB0C01DFF824E1E8
:102040004FEA1154A4EB135C1EEA430F18BF9EEA3B
:10205000445F73D023EA0E03DCF1200E21EA045121
:1020600043F4801332D322FA0CFE10EB0E0023FA55
:102070000CFE41EB0E01CCF1200E03FA0EFE10EB2C
:102080000E0051F10001B1F5801FCCF1200E32D2CB
:1020900001EB045112FA0EF2BDE8104058BF704730
:1020A000401C38BF5FEA420218BF7047002814BFC7
:1020B00020F0010041F100014FEA410313F5001F38
:1020C00038BF7047A1F1C04100F048BB012A43EB83
:1020D0000302ACF1200CDCF11F0E32BF4FF0000EFA
:1020E00023FA0CF310EB030041EB0451B4EB115F46
:1020F000D0D0A1EB045101F5801149085FEA30000E
:1021000001EB04510ED350F1000038BF12FA0EFE5D
:1021100008D1BDE81040C9E7401C38BF5FEA420261
:10212000CAD1C3E7BDE810404FEA410313F5001FD1
:1021300038BF7047A1F1C04100F010BB9EEA445F78
:1021400008D011EA5E0FBDE8104004BF01F0004165
:1021500000207047BDE8104070B500F0B1FA00BF34
:1021600064FBBE3E0000E0FF02494FF0000000F0BB
:10217000AABF00BF0000F87F491058BFC1F140411D
:102180005B1058BFC3F140438B42EFF300807047B0
:102190002DE9C04130B4DFF8A0C23CEA111418BFE9
:1021A0003CEA131400F0EC8081EA03051CEA1114E8
:1021B00044EAD57418BF1CEA131500F0C780A4EBDD
:1021C00005044FF0004545EAC12145EAC32341EA31
:1021D000505143EA525304F17F74994204F500349C
:1021E0004FEAC0204FEAC22208BF904200F09C8014
:1021F0004FEA13650FF24016765D4FEA134506FB72
:1022000005F7C7F1807706FB07F74FEAD737A7FB3B
:1022100003687642C8F58038A7FB06CE38BFA8F120
:10222000010807FB08E64FF0000EA6FB028CE6FB58
:1022300003CEDCF1000CCEF1004E38BFAEF1010E42
:10224000A6FB0C584FF000074FF00005E6FB0E8789
:10225000A1FB08C6A0FB07CE16EB0E0645F1000554
:10226000E1FB076515F1E04E7EBFA4F580345FEA1F
:1022700046066D4116F1800745F100054FEA172724
:102280004FEA066647EA0567A6F1DE46B6F1805FCB
:102290004FEA15251FD9384624F0010C05EBC4710F
:1022A000BCF1FE6F01EB0C1102D8F0BCBDE800815F
:1022B00024425CBF01F5801E9EEAC47F02D4F0BCBC
:1022C000BDE80081244238D4F0BCA1F1C041BDE892
:1022D000004100F043BA4FEAD22242EA43524FEAA9
:1022E000D323A7FB02864FEAD02040EA415007FBE8
:1022F00003661EEA0E0F4FEAD12105FB026658BFA6
:10230000A6EB0056B6EB00564FEA520E4EEAC37EDD
:1023100018EB0E0E56EB530EBDD518EB02085E41BE
:102320007F1C55F10005B6E74FF480154FF000070C
:102330004FF000064FF00008ADE7F0BC4FF0000092
:1023400001F1C04101F00041BDE8008111EA0C1F1C
:102350000CEA131500D00CE013EA0C1F00F02580E6
:102360004FF00000F0BC81EA030101F00041BDE83C
:102370000081F0BCBDE8004181EA030100F0EEB944
:10238000F0BCBDE8004170B500F09AF9097EFC3E52
:1023900000F007B881EA03014FF0000001F00041AE
:1023A000704781EA030100F0D9B9F0BCBDE80041F3
:1023B0004FF0000021497047FFFDFBF9F7F5F4F2FB
:1023C000F0EEEDEBE9E8E6E4E3E1E0DEDDDBDAD8D0
:1023D000D7D5D4D3D1D0CFCDCCCBCAC8C7C6C5C42E
:1023E000C2C1C0BFBEBDBCBBBAB9B8B7B6B5B4B345
:1023F000B2B1B0AFAEADACABAAA9A8A8A7A6A5A430
:10240000A3A3A2A1A09F9F9E9D9C9C9B9A999998F3
:102410009797969595949393929191908F8F8E8E96
:102420008D8C8C8B8B8A8989888887878685858423
:1024300084838382828181800000FF070000F87F0F
:102440004FEA41034FEA5353A3F58063D3F11E03D0
:10245000C8BFD3F1210C0CDD4FF0004242EAC1228B
:1024600042EA505232FA03FC8CEAE17CACEBE170B8
:102470007047102BC4BF0020704703F5787CBCF177
:10248000FF3F04D06FF0004282EA2100704770B530
:1024900000F016F94992248000207047F2E710F00E
:1024A000004248BF4042B0FA80F310FA03F10AD06C
:1024B000C3F11D0303F580634FEA415002EB035261
:1024C00002EBD12170474FF000007047B0FA80F363
:1024D00010FA03F10AD0C3F11D0303F580634FEA3C
:1024E00041504FEA035202EBD12170474FF00000F8
:1024F0007047000051EA030C17D41CF5801F58BF29
:10250000BCF5801F00F10680994218BF704708BFD4
:102510009042704707D711F5801F58BF13F5801FF1
:1025200019D499427047894270471CF5801F08D51D
:10253000BCF5801FF7D58B4218BF704708BF824299
:1025400070474FF4001C1CEB410F38BF1CEB430FCE
:1025500001D28B42704770B500F0B2F89224490066
:102560004FF000514FF08053FFF706BEDFF848C12F
:1025700070B51CEA111E1EBF1CEA13159EEA0C0F53
:1025800095EA0C0F00F06F8081EA030423EA4C13F4
:102590004EEAD47E21EA4C1141F4801143F48013B9
:1025A000AE44A1FB024CA0FB0365AEF17F7E361961
:1025B00055EB0C05A1FB034C4CF10003A0FB021CE6
:1025C00016EB0C06654153F10003094218BF46F0B3
:1025D000010613F4007F0BD14FEA03314FEA0530B7
:1025E000340341EA155140EA16506FF003020AE045
:1025F0004FEAC3214FEAC520F40241EA555140EAAF
:1026000056506FF0020202EB2E4201EB025585EAB2
:10261000CE710AD05FEA440C18BF24F0004450F198
:10262000000041F1000120EAD47040F2FE7C6245D6
:1026300000D270BDA84214BF4FF080444FF0404418
:10264000002E08BF0024BEF1806FA8BFA1F1C041D9
:10265000BDE8704080F282804FF0000001F1C0417F
:1026600001F0004170479EEA0C0F0CEA131518BFE9
:1026700095EA0C0F06D04FF0000081EA030E0EF031
:10268000004170BD00F01CF88900013E00F007B861
:1026900000F009B84FEA430C5FEA5C5C08D081EABD
:1026A000030100F05BB84FEA410C5FEA5C5CF6D1D5
:1026B0004FF00000014970470000FF070000F87F5D
:1026C0000EF1020E2EF0030E5EF8046B364205D4B6
:1026D000012A43EB030515F5001F12D8012841EB31
:1026E000010C1CF5001F0CD80ED14FEAD17C15F55A
:1026F000001F0CEB4C0C0CF1020C08BF4CEBD37C14
:1027000004E04FF0080C01E04FEAD37C0CEB4C05E1
:1027100026FA05F606F00706B6F1040C06D20EEB13
:10272000860CBDE870404CF0010C6047DFE80CF00F
:10273000090B02024FF000414FF00000A1F500210B
:1027400070BD19461046012851EB010418BFD4F59D
:10275000001484BF002001F0004170BD0808A0F5FE
:1027600000114FEA3101704753EA010C17D41CF5F0
:10277000801F58BFBCF5801F00F106808B4218BF38
:10278000704708BF8242704707D713F5801F58BFB4
:1027900011F5801F19D48B4270479B4270471CF57E
:1027A000801F08D5BCF5801FF7D5994218BF704728
:1027B00008BF904270474FF4001C1CEB430F38BF1A
:1027C0001CEB410F01D2994270470FB40CBC03BC03
:1027D000FFF7C1BE91EA030F10B581F000413FF54C
:1027E00023AC83F0004300F0EFB800002DE9F04186
:1027F00001F5801CBCF5001FC0F2C3804FEA115CDC
:1028000021EA0C510CF1FD0C41F480115FEA5C0CE3
:102810000CF5C07C01D3400049413DA4890241EA46
:10282000905187028E0E0A0CA45D04FB04F602FB95
:1028300006F6C6F14046A4FB0662F60D46EA4226BD
:1028400006FB06F4A4FB01235242C3F1404338BF08
:102850005B1EA6FB02420024E6FB0324D20B42EAE5
:102860004446A6FB0623A1FB02E2A3FB07E4A4184F
:102870004FF0000252F10002E3FB01426442C2F158
:10288000404E38BFAEF1010EA6FB04234FF000020C
:10289000E6FB0E32A2FB03464FF00004B61954F1DA
:1028A0000004E2FB0264A1FB06E6A4FB07E816EBCA
:1028B00008064FF0000858F10008E4FB0168764272
:1028C000C8F1405838BFA8F10108A2FB06E4A3FBF9
:1028D00008E52D194FF0000454F10004E2FB085400
:1028E000A1FB05E6A7FB04E818EB06084FF000067D
:1028F00056F10006E1FB048618F1200556F10006AA
:10290000A809A8F11B08B10908F03F08B8F10A0F9F
:1029100040EA86601CD901EB0C51BDE8F08100BF94
:10292000FCF5EEE8E2DDD8D3CFCBC7C3C0BDB9B666
:10293000B4B1AEACA9A7A5A3A19F9D9B9A9896956B
:102940009392908F8D8C8B898887868584838281F2
:10295000A0FB006800FB01F208EB4208B8EB8728F7
:1029600007D5341858EB0104D5D5401C51F10001AE
:10297000D1E7341A78EB0104CDD4401E71F1000187
:10298000C9E75FEA4C0C5FEA9C5C0DD105D34FF0C0
:10299000000001F00041BDE8F081BDE8F04170B5F4
:1029A000FFF78EFE6DDBFFBEBDE8F0414FF000008B
:1029B000004970470000F87F10B591EA030F48BF47
:1029C00083F000433FF530AB841A71EB030C07D260
:1029D00012198CF0004C43EB0C03001B61EB0C0153
:1029E000DFF8A4E14FEA1154A4EB135C1EEA430F95
:1029F00018BF9EEA445F00F0B08023EA6E035242A3
:102A000021EA0451C3EB6E0338BF5B1EDCF1200EDC
:102A100025D322FA0CFE10EB0E0043FA0CFE41EB1C
:102A20000E01CCF1200E03FA0EFE10EB0E0051F158
:102A30000001CCF1200E29D412FA0EF201EB045160
:102A4000BDE8104058BF7047401C1CBFB2F1004F9A
:102A5000704700280CBF491C20F00100704712EBA2
:102A6000020E43EB030218BF4FF0010E4EEA420282
:102A7000ACF1200CDCF11E0E54D943FA0CFE10EB25
:102A80000E0051F1FF31CCF11E0ED5D50EF1010E25
:102A900012FA0EFE404141EB010101EB445C5FEA9A
:102AA0005C5C10D910EBDE7001EB045138BFBEF155
:102AB000004FBDE8104018BF704700280CBF491CEC
:102AC00020F00100704730D24FEAD42C11F50011EC
:102AD00024F400641BD0B1FA81F20B3AA41AA41EAC
:102AE000D2F12003914030FA03F31943904001EBF7
:102AF000CC71002C01EB0451BDE81040A8BF704719
:102B000001F1C0414FF0000001F000417047B0FA00
:102B100080F310FA03F100D110BDE41A173C480508
:102B2000C90AE4E701EB045110BD491001EB04515F
:102B3000BDE810404FEA300002E04FF0000170475E
:102B40004A0008BF0042F8D0B2F5001F28BF704706
:102B500001F000414FF0000070479EEA445F07D04B
:102B600011EA5E0FBDE8104004BF0021002070474D
:102B7000BDE8104070B5FFF7A3FD00BF40DFF63E93
:102B800083F00041104670470000E0FF90EA010F1B
:102B900048BF81F0004100F12882421A3CBF801AF0
:102BA00089184FEAD0524FF07F4C1CEA410FA2EB3C
:102BB000D15318BF9CEA026F00F03B804FF0004CED
:102BC0004CEA00204CEA012121FA03FC10EB0C0C2A
:102BD0001ED202F1FF325FEA1C2040EBC25038BF28
:102BE00070471CF07F0F4FEA400C18BFBCF17F4FBD
:102BF00038BF7047C3F12003994008BF20F001009F
:102C0000BCF17F4F38BF7047A0F1C04000F0E1B980
:102C10004FEA3C00000A40EBC25028BF1CF0FF0FF7
:102C20004FEA400CE6D018BFBCF17F4F38BF704769
:102C3000EAE79CEA026F05D010EA5C0F08BF00F0DB
:102C40000040704710B500F07EF900BF64FBBE3E47
:102C50004FF47F0C1CEAD0121EBF1CEAD11392EA7B
:102C60000C0F93EA0C0F00F0858090EA010F48BF2B
:102C700042F4807240F4000C41F400002CF07F41DB
:102C800020F07F4000B58142A2EB03020FF2081C46
:102C9000ACEB504EC0F100009EF800E04FEA4E0E43
:102CA00000FB0EFC38BF49004FEA2C1C02F5FA026B
:102CB0000CFB0EF34FEACE1E4FEA112C4FEAC12156
:102CC0000EEB635E42EB22420EFB0CFC4FEA1C5300
:102CD00000FB03114FEA112C4FEA01310EFB0CFCF3
:102CE0004FEADC4C00FB0C11C14228BF09184CEB29
:102CF00003335DF804EB10EB410143EBC250B2F536
:102D00007C0F38BF704729D512F0F00F1CBF00F1BF
:102D1000C04000F000407047008182838485868730
:102D200088898B8C8D8E8F919293959697999A9C8A
:102D30009D9FA0A2A3A5A7A8AAACAEB0B2B3B5B7F9
:102D4000B9BCBEC0C2C5C7C9CCCED1D4D7D9DCDFCF
:102D5000E2E6E9ECF0F3F7FAFE0000004FEA400C7F
:102D60000CF1807CBCF17E4F28BF7047B0F1C040B1
:102D700000F02FB990EA010F0CEAD11348BF42F4DA
:102D80008072624538BF634507D213F47F0F16D0B7
:102D900080EA010000F00040704710B500F0D3F861
:102DA000097EFC3E00F005B880EA010000F000401A
:102DB000704780EA010000F0004000F00AB912F408
:102DC0007F0F04BF0248704780EA010000F001B99C
:102DD0000000C07FC10DD1F19E0206DB4FEA002347
:102DE00043F0004323FA02F07047004207D54FEA50
:102DF0004001B1F1FE4F02D24FF00000704710B514
:102E000000F0A1F849922480002070476FEA20006A
:102E10007047000010F0004148BF4042B0FA80F314
:102E200010FA03F2C3F19D030BD051EAC35101EB39
:102E30001220530638BF704700F1010008BF20F090
:102E4000010070474FF47F0C1CEAD0121EBF1CEA31
:102E5000D11392EA0C0F93EA0C0F00F0478090EA2E
:102E6000010F48BF42F480724FF0004C4CEA002042
:102E70004CEA012102EB0302A0FB0113A2F50002C0
:102E8000002918BF43F001035B0028BF4FEA33035A
:102E900042EB22425FEA132C4CEBC2502EBFBCEB3C
:102EA000436FB2F57C0F70474FEA036CBCF1004FE3
:102EB00008BF20F00100B2F57C0F38BF70470BD57A
:102EC00082F0FF0212F5803FC8BF704700F1C0409A
:102ED000D8BF00F00040704700F5000C5FEA4C0CD2
:102EE00048BF7047B0F1C04000F073B890EA010FDE
:102EF0000CEAD11348BF42F48072624538BF634583
:102F000004D280EA010000F00040704710B500F0E4
:102F10001AF800BF8900013E00F007B800F009B8B8
:102F20005FEA410C5FEA1C6C08D080EA010000F007
:102F300050B85FEA400C5FEA1C6CF6D14FF00040DD
:102F4000A0F5800070470EF1020E2EF0030E5EF821
:102F5000044B244204D44FEA4102B2F17F4F11D80E
:102F60004FEA4003B3F17F4F0CD80ED14FEAD07C2B
:102F7000B2F17F4F0CEB4C0C0CF1020C08BF4CEB88
:102F8000D17C04E04FF0080C01E04FEAD17C0CEB5F
:102F90004C0324FA03F404F00704B4F1040C06D241
:102FA0000EEB840CBDE810404CF0010C6047DFE8EC
:102FB0000CF0070802024FF00040A0F5800010BDA1
:102FC0000846420018BFD2F1807288BF00F000406E
:102FD00010BDFF2141EAD050C005704790EA010FB3
:102FE00048BF81F000413FF5D8AD421A04D882F0C5
:102FF0000042A0EB020011444FEAD0524FF07F4C48
:103000001CEA410FA2EBD15318BF9CEA026F4AD0D1
:103010004FF0004C4CEA00204CEA012121FA03FC5D
:10302000B0EB0C0C0FD412F0FE0F36D05FEA4C0060
:103030001DD5001240EBC25038BF70471CF03F0F47
:1030400018BF70470BE0A2F101025FEA1C2040EBC1
:10305000C25038BF70471CF07F0F18BF7047C3F1D4
:103060002003994014BF401E20F0010070478008E3
:103070004FEA122308BF7047B0FA80FCA2EB0C02A3
:10308000CCF1280C60FA0CF093EA122F04BF00EB8D
:10309000C25070474FEAC3707047130A5FEADC10F2
:1030A00008BF7047F6E79CEA026F04D010EA5C0F95
:1030B00008BF0020704710B5FFF745FF40DFF63E20
:1030C00081F0004070470CF00F03092B08BF082067
:1030D00000F059800A2B0BD0082B18BF704708BF8F
:1030E0001CF0400F0AD04FF000004FF00001704775
:1030F0001CF0400F18BF4FF0004070471CF0100F3D
:1031000008D020F0704300F07F4242EAD3014FEA3A
:103110004370704700F0604021F07F4242EA0002B5
:1031200001F07F4040EA727070474FF0FF0C4CF4A2
:10313000E06C1CEA11531CBF9CEA030C9445C2BF0F
:10314000DA4201EB02517047002B0DD0BCF1000FA9
:103150000FD0002A01F00041A4BF41F0E04141F04E
:103160007F614FF00000704701F000414FF0000018
:10317000704750EA01334FF09B0C18BF4CF0806C45
:103180007EF4F2AF70471CF4801F11D01CF4E02FC6
:1031900003D06FEACC31490070474FF04050EFF355
:1031A000008222F0704242EA000282F300887047F7
:1031B0004FF0000070470000000000000000000019
:1031C000000000000000000000F800000000000007
:1031D00000333000000000100C06100C0600000048
:1031E00000000000000040C07840C0784000043F6C
:1031F00004043F040400007088FC0830000000183C
:1032000020FF211E0000F008F000E018000000215F
:103210001C031E211E0000F00888700000001E2103
:1032200023241927211010160E00000000000000B2
:10323000000000000000000000E018040200000090
:1032400000071820400000020418E00000000040C1
:10325000201807000000404080F08040400002023B
:10326000010F01020200000000F000000000010157
:10327000011F01010100000000000000000080B0FB
:1032800070000000000000000000000000000001CD
:1032900001010101010100000000000000000030F8
:1032A0003000000000000000000080601804006092
:1032B00018060100000000E010080810E000000FF0
:1032C000102020100F00001010F800000000002057
:1032D000203F20200000007008080888700000309F
:1032E0002824222130000030088888483000001847
:1032F000202020110E000000C02010F80000000760
:103300000424243F240000F80888880808000019D5
:10331000212020110E0000E0108888180000000F06
:10332000112020110E0000380808C83808000000DD
:10333000003F000000000070880808887000001C32
:10334000222121221C0000E010080810E0000000EB
:10335000312222110F00000000C0C0000000000058
:10336000003030000000000000800000000000007D
:103370008060000000000000804020100800000174
:103380000204081020004040404040404000040437
:103390000404040404000008102040800000002001
:1033A000100804020100007048080808F00000003E
:1033B000003036010000C030C828E810E0000718CF
:1033C000272423140B000000C038E0000000203C3C
:1033D00023020227382008F8888888700000203FE0
:1033E000202020110E00C0300808080838000718F7
:1033F00020202010080008F808080810E000203FEE
:10340000202020100F0008F88888E8081000203FCE
:1034100020202320180008F88888E8081000203FA2
:10342000200003000000C03008080838000007181A
:103430002020221E020008F808000008F808203F9B
:10344000210101213F20000808F8080800000020A1
:10345000203F2020000000000808F8080800C08075
:1034600080807F00000008F888C028180800203FEE
:1034700020012638200008F8080000000000203F46
:1034800020202020300008F8F800F8F80800203F3D
:10349000003F003F200008F830C00008F808203F37
:1034A000200007183F00E01008080810E0000F1087
:1034B000202020100F0008F808080808F000203F1E
:1034C000210101010000E01008080810E0000F18B9
:1034D000242438504F0008F8888888887000203FDE
:1034E0002000030C302000708808080838000038DD
:1034F000202121221C00180808F8080818000000E4
:10350000203F2000000008F808000008F808001F0D
:10351000202020201F000878880000C838080000FC
:1035200007380E010000F80800F80008F800033C16
:103530000700073C030008186880806818082030DE
:103540002C03032C30200838C800C83808000000BD
:10355000203F2000000010080808C8380800203864
:10356000262120201800000000FE020202000000B8
:10357000007F40404000000C30C000000000000010
:1035800000010638C00000020202FE0000000040F8
:1035900040407F000000000004020202040000001E
:1035A000000000000000000000000000000080801B
:1035B0008080808080800002020400000000000003
:1035C00000000000000000008080808000000019E2
:1035D000242222223F2008F8008080000000003FC3
:1035E000112020110E000000008080800000000EDD
:1035F000112020201100000000808088F800000EBB
:10360000112020103F200000808080800000001FDB
:10361000222222221300008080F08888881800204F
:10362000203F202000000000808080808000006B10
:1036300094949493600008F8008080800000203FFC
:10364000210000203F20008098980000000000200A
:10365000203F20200000000000809898000000C05B
:103660008080807F000008F8000080808000203F7C
:1036700024022D302000000808F80000000000207F
:10368000203F202000008080808080808000203FBC
:1036900020003F20003F8080008080800000203F8D
:1036A000210000203F200000808080800000001F5B
:1036B000202020201F00808000808000000080FFEC
:1036C000A12020110E000000008080808000000EEC
:1036D000112020A0FF80808080008080800020203A
:1036E0003F212000010000008080808080000033A6
:1036F000242424241900008080E080800000000041
:10370000001F202000008080000000808000001F3B
:10371000202020103F2080808000008080800001D9
:103720000E300806010080800080008080800F300D
:103730000C030C300F00008080008080800000208F
:10374000312E0E31200080808000008080808081BA
:103750008E7018060100008080808080800000212B
:10376000302C2221300000000000807C020200008A
:103770000000003F404000000000FF00000000008B
:103780000000FF0000000002027C800000000040FA
:10379000403F000000000006010102020404000096
:1037A00000000000000000004FBB610567ACDD3F7A
:1037B000182D4454FB21E93F9BF681D20B73EF3F58
:1037C000182D4454FB21F93FE2652F227F2B7A3CD0
:1037D000075C143326A6813CBDCBF07A8807703C89
:1037E000075C143326A6913CC4EB98999999C9BFFC
:1037F000711623FEC671BCBF6D9A74AFF2B0B3BF31
:103800009AFDDE522DDEADBF2F6C6A2C44B4A2BFF0
:103810000D5555555555D53FFF8300922449C23F5C
:103820006E204CC5CD45B73F513DD0A0660DB13F90
:10383000EB0D76244B7BA93F11DA22E33AAD903FA2
:103840004C5555555555A53F7751C1166CC156BFBE
:103850009015CB19A001FA3EAD529C804F7E92BECE
:10386000C4B1B4BD9EEE213ED43888BEE9FAA8BDED
:1038700000004054FB21F93F3163621A61B4D03D2E
:103880000000601A61B4D03D7370032E8A19A33B07
:103890000000002E8A19A33BC14920259A837B3959
:1038A00000000000000000006E83F9A22915444EBC
:1038B000D15727FCC0DD34F5999562DB4190433C3C
:1038C000AB6351FE61C5BBDE3A6E24B7E0D24D4218
:1038D000EA2E49061C92D1091CEB1DFE3EA729B118
:1038E000F53582E88444BB2E26709CE9417E5FB4A6
:1038F00039D69139F43953838B5F849C3B28F9BDC9
:10390000FF97F81F0F9805DE8B112FEF1F6D0A5AD6
:10391000CF7E366DB709CB27663F464F2DEA5F9EB7
:10392000C7BA27757BF1E5EBF739073DEA92528A72
:10393000B15FFB6B085D8D1FA6F810111111813F5F
:10394000D561C119A0012ABF7DFEB157E31DC73E55
:10395000EB9C2B8AE6E55ABE7CD5CF5A3AD9E53D99
:103960008039000800000020300000002801000815
:10397000B03900083000002078060000440100083B
:103980000000000000000000000000000000000037
:103990000000000000000000000000000000000027
:1039A0000000000000000000000000000000000017
:040000050800018965
:00000001FF
